:020000040800F2
:1000000048040120DD010008E5010008E7010008BF
:10001000E9010008EB010008ED0100080000000004
:10002000000000000000000000000000EF010008D8
:10003000F101000800000000F3010008410200087F
:10004000F7010008F7010008F7010008F7010008B0
:10005000F7010008F7010008F7010008F7010008A0
:10006000F7010008F7010008F7010008F701000890
:10007000F7010008F7010008F7010008F701000880
:10008000F7010008F701000825020008F701000841
:10009000F7010008F7010008F7010008F701000860
:1000A000F7010008F7010008F7010008F701000850
:1000B000F7010008F7010008F7010008F701000840
:1000C000F7010008F7010008F7010008F701000830
:1000D000F7010008F7010008F7010008F701000820
:1000E000F7010008F7010008F7010008F701000810
:1000F000F7010008F7010008F7010008F701000800
:10010000F7010008F7010008F7010008F7010008EF
:10011000F7010008F7010008F7010008F7010008DF
:10012000F7010008F7010008F7010008F7010008CF
:10013000F7010008F7010008F7010008F7010008BF
:10014000F7010008F7010008F7010008F7010008AF
:10015000F7010008F7010008F7010008F70100089F
:10016000F7010008F7010008F7010008F70100088F
:10017000F7010008F7010008F7010008000000007F
:10018000F7010008F7010008F7010008F70100086F
:10019000F7010008F7010008F7010008F70100085F
:1001A000F7010008F7010008F7010008F70100084F
:1001B000F7010008F7010008F7010008F70100083F
:1001C000F7010008F7010008DFF80CD000F018F87C
:1001D00000480047D503000848040120064880472E
:1001E00006480047FEE7FEE7FEE7FEE7FEE7FEE71C
:1001F000FEE7FEE7FEE7FEE70D030008C901000881
:10020000064C074D06E0E06840F0010394E8070063
:1002100098471034AC42F6D3FFF7DAFFC80600085F
:10022000E8060008034800680349044A127841F8C8
:10023000220070474C2201402400012008000120C8
:1002400001200149087070470900012070B50020A5
:100250000022022300240221274D2D6805F00C0006
:1002600020B1042806D0082834D107E0234D244EBD
:10027000356033E0234D224E35602FE01E4D2D1F9B
:100280002D68C5F380541C4D2D1F2D6805F03F01CE
:1002900054B11C4DB5FBF1F5174E361F3668C6F349
:1002A000881605FB06F209E0144DB5FBF1F5124E78
:1002B000361F3668C6F3881605FB06F20E4D2D1F55
:1002C0002D68C5F301456D1C6B00B2FBF3F50C4EB8
:1002D000356003E0094D0A4E356000BF00BF064D92
:1002E0002D68C5F30315084E705D054D2D68C5409A
:1002F000034E356070BD0000083802400024F40051
:100300002000012040787D01B006000814480068F4
:1003100040F47000124908601248006840F0010083
:100320001049086000200F49083108600D48006836
:100330000D4908400B4908600C48091D0860081F5A
:10034000006820F48020091F0860002005490C3156
:1003500008604FF000600249803908607047000073
:1003600088ED00E000380240FFFFF6FE1030002468
:100370000C480D490978405C0C4908600C48D0F8DD
:10038000080240F0804009492C39086000BF074846
:100390003438006800F002000549C1F80002012865
:1003A000F5D07047140001200800012034220140DC
:1003B0000020014002E008C8121F08C1002AFAD13B
:1003C00070477047002001E001C1121F002AFBD1D5
:1003D00070470000FF20A4490860A348103000685F
:1003E00040F00200A04910310860081D006840F488
:1003F0008060091D08604FF47C609C4908609C483F
:10040000006840F020009B49C1F804020846D0F87B
:10041000080240F00100C1F808020846D0F80802BE
:1004200040F48060C1F80802934800789049303168
:1004300008601220002809DB00F01F020121914012
:100440004209920002F1E022C2F8001100BF8B487D
:100450008B4908600020091D08608848091D086054
:10046000091D08608748006820F0406085490860E1
:100470008548006820F440508349086008460068B9
:1004800040F400500860002048600846806820F46E
:10049000405088600846806840F480508860084674
:1004A000C06820F44050C8600846C06840F48050DE
:1004B000C860080208627548006840F0010073498E
:1004C00008600F2071491431086044F62060091D4E
:1004D00008606E480838006840F001006B49083930
:1004E00008606A481438006840F001006749143910
:1004F000086060206549091D086064480C30006888
:1005000040F0010061490C31086064205F492031EE
:100510000860FFF79BFE5E4800680A22B0FBF2F11C
:10052000481EB0F1807F00D31BE0481E4FF0E02250
:10053000506150170F22002804DB13071C0E554B87
:100540001C5406E013071D0E534B00F00F04241F2C
:100550001D5500BF00204FF0E02290610720106180
:1005600000BF80E04D48007801287CD1FFF700FFF4
:100570004B484C49097850F82100B0F51B7F16DD37
:1005800047484849097850F82100B0F59B6F0EDACA
:1005900041F2883044490860084600683B492031F0
:1005A0000860002000E0401C40498842FBDB3C48DA
:1005B0003C49097850F82100B0F59B6F17DB3848AB
:1005C0003849097850F8210040F2457188420EDA26
:1005D00042F2107034490860084600682B49203107
:1005E0000860002000E0401C30498842FBDB2C48BA
:1005F0002C49097850F8210040F24571884217DBF8
:1006000027482849097850F8210040F6B21188425D
:100610000EDA43F6982024490860084600681B4912
:1006200020310860002000E0401C20498842FBDBAC
:100630001B481C49097850F8210040F6B211884245
:100640000EDB44F6206018490860084600680F4930
:1006500020310860002000E0401C14498842FBDB88
:1006600000200E4908707DE7303802400014024037
:10067000042201400020014014000120014000102C
:100680000004024000080240000002401404004040
:100690002000012000E400E018ED00E00900012046
:1006A000240001200800012000000120400D03006B
:1006B0000000000000000000010203040607080912
:1006C0000000000001020304E80600080000012009
:1006D00024000000B40300080C07000824000120D7
:1006E00024040000C40300086400000000000000AF
:1006F0000100000031000000CA3A0100090E0F0499
:0C07000005060708000000000024F400BB
:04000005080001DD11
:00000001FF
